{
  "contractName": "HelloWorld",
  "abi": [
    {
      "inputs": [
        {
          "internalType": "string",
          "name": "_name",
          "type": "string"
        }
      ],
      "name": "setMyName",
      "outputs": [],
      "stateMutability": "nonpayable",
      "type": "function"
    }
  ],
  "bytecode": "0x608060405234801561001057600080fd5b50610474806100206000396000f3fe608060405234801561001057600080fd5b506004361061002b5760003560e01c8063c7857d2714610030575b600080fd5b61004a600480360381019061004591906100d1565b61004c565b005b81816001918261005d92919061036e565b505050565b600080fd5b600080fd5b600080fd5b600080fd5b600080fd5b60008083601f8401126100915761009061006c565b5b8235905067ffffffffffffffff8111156100ae576100ad610071565b5b6020830191508360018202830111156100ca576100c9610076565b5b9250929050565b600080602083850312156100e8576100e7610062565b5b600083013567ffffffffffffffff81111561010657610105610067565b5b6101128582860161007b565b92509250509250929050565b600082905092915050565b7f4e487b7100000000000000000000000000000000000000000000000000000000600052604160045260246000fd5b7f4e487b7100000000000000000000000000000000000000000000000000000000600052602260045260246000fd5b6000600282049050600182168061019f57607f821691505b6020821081036101b2576101b1610158565b5b50919050565b60008190508160005260206000209050919050565b60006020601f8301049050919050565b600082821b905092915050565b60006008830261021a7fffffffffffffffffffffffffffffffffffffffffffffffffffffffffffffffff826101dd565b61022486836101dd565b95508019841693508086168417925050509392505050565b6000819050919050565b6000819050919050565b600061026b6102666102618461023c565b610246565b61023c565b9050919050565b6000819050919050565b61028583610250565b61029961029182610272565b8484546101ea565b825550505050565b600090565b6102ae6102a1565b6102b981848461027c565b505050565b5b818110156102dd576102d26000826102a6565b6001810190506102bf565b5050565b601f821115610322576102f3816101b8565b6102fc846101cd565b8101602085101561030b578190505b61031f610317856101cd565b8301826102be565b50505b505050565b600082821c905092915050565b600061034560001984600802610327565b1980831691505092915050565b600061035e8383610334565b9150826002028217905092915050565b610378838361011e565b67ffffffffffffffff81111561039157610390610129565b5b61039b8254610187565b6103a68282856102e1565b6000601f8311600181146103d557600084156103c3578287013590505b6103cd8582610352565b865550610435565b601f1984166103e3866101b8565b60005b8281101561040b578489013582556001820191506020850194506020810190506103e6565b868310156104285784890135610424601f891682610334565b8355505b6001600288020188555050505b5050505050505056fea2646970667358221220c943d2edc2580cb55a9c5d7e5dcaa666be001e1e9b255b6a59138c7b7e8dfb0664736f6c63430008110033",
  "immutableReferences": {},
  "source": "// SPDX-License-Identifier: MIT\npragma solidity >=0.4.22 < 0.9.0;\n\ncontract HelloWorld{\n    int age;\n    string name;\n\n    function setMyName(string calldata _name) public {\n        name = _name;\n    }\n}",
  "sourcePath": "/home/sadam/solidity-projects/hello-world/contracts/hello.sol",
  "compiler": {
    "name": "solc",
    "version": "0.8.17+commit.8df45f5f.Emscripten.clang"
  },
  "schemaVersion": "3.4.11",
  "updatedAt": "2023-01-19T19:27:37.897Z",
  "devdoc": {
    "kind": "dev",
    "methods": {},
    "version": 1
  },
  "userdoc": {
    "kind": "user",
    "methods": {},
    "version": 1
  }
}